:020000040800F2
:1000000000A0002021340008693400086934000889
:1000100069340008693400086934000800000000F1
:10002000000000000000000000000000693400082B
:1000300069340008000000006934000869340008D1
:1000400000000000000000000000000000000000B0
:1000500000000000000000000000000000000000A0
:100060000000000000000000000000000000000090
:100070000000000000000000000000000000000080
:100080000000000000000000000000000000000070
:100090000000000000000000000000000000000060
:1000A0000000000000000000000000000000000050
:1000B0000000000000000000000000000000000040
:1000C0000000000000000000000000000000000030
:1000D0000000000000000000000000000000000020
:1000E0000000000000000000000000000000000010
:1000F0000000000000000000000000000000000000
:1001000000000000000000000000000000000000EF
:1001100000000000000000000000000000000000DF
:1001200000000000000000000000000000000000CF
:1001300000000000000000000000000000000000BF
:1001400000000000000000000000000000000000AF
:10015000000000000000000000000000000000009F
:10016000000000000000000000000000000000008F
:10017000000000000000000000000000000000007F
:08018000000000000000000077
:100190000348044B834202D0034B03B11847704716
:1001A0006400002064000020000000000548064BA9
:1001B0001B1AD90F01EBA301491002D0034B03B165
:1001C0001847704764000020640000200000000011
:1001D00010B5064C237843B9FFF7DAFF044B13B18F
:1001E0000448AFF300800123237010BD6400002099
:1001F000000000006C34000808B5044B1BB1044932
:100200000448AFF30080BDE80840CFE700000000DD
:10021000680000206C340008014B1868704700BF6C
:100220000000002070B50F4B0F4DAB42A3EB05064D
:1002300007D0B610002455F8043B01349847A64275
:10024000F9D803F013F9094D094B5E1BAB424FEA95
:10025000A60606D0002455F8043B01349847A64270
:10026000F9D870BDBC3D0008BC3D0008BC3D00088D
:10027000C03D0008844641EA000313F003036DD13A
:10028000403A41D351F8043B40F8043B51F8043B59
:1002900040F8043B51F8043B40F8043B51F8043B60
:1002A00040F8043B51F8043B40F8043B51F8043B50
:1002B00040F8043B51F8043B40F8043B51F8043B40
:1002C00040F8043B51F8043B40F8043B51F8043B30
:1002D00040F8043B51F8043B40F8043B51F8043B20
:1002E00040F8043B51F8043B40F8043B51F8043B10
:1002F00040F8043B51F8043B40F8043B51F8043B00
:1003000040F8043B403ABDD2303211D351F8043B9F
:1003100040F8043B51F8043B40F8043B51F8043BDF
:1003200040F8043B51F8043B40F8043B103AEDD24E
:100330000C3205D351F8043B40F8043B043AF9D29F
:10034000043208D0D2071CBF11F8013B00F8013B72
:1003500001D30B8803806046704700BF082A13D37F
:100360008B078DD010F003038AD0C3F10403D21A97
:10037000DB071CBF11F8013B00F8013B80D331F8CB
:10038000023B20F8023B7BE7043AD9D3013A11F84B
:10039000013B00F8013BF9D20B7803704B784370B6
:1003A0008B78837060467047830730B547D0541E02
:1003B000002A3ED0CAB2034601E0013C39D303F81B
:1003C000012B9D07F9D1032C2CD9CDB205EB0525C6
:1003D0000F2C05EB054535D9A4F1100222F00F0CC6
:1003E00003F1100EE6444FEA121C1A4615605560E0
:1003F0009560D56010327245F8D10CF1010214F00D
:100400000C0F03EB021204F00F0C13D0ACF1040339
:1004100023F003030433134442F8045B9A42FBD1F4
:100420000CF003042CB1C9B21C4403F8011B9C421C
:10043000FBD130BD64461346002CF4D1F9E70346E6
:100440001446C0E71A46A446E0E700BF38B5124B91
:100450001D68AA6B04461AB10023C2E9044338BDE3
:10046000182000F0B3F80246A86378B101200021FB
:10047000C2E90401094B0A480A499160C2E9000334
:100480000B2393810023C2E9044338BD064B074880
:10049000422100F053F800BF0000002034126DE646
:1004A0000E33CDABECDE0500F43C00080C3D00083B
:1004B00038B5194B1C68A26B8AB113691749546986
:1004C000174803FB01F100FB0411A3FB00300133CB
:1004D00041EB0001C2E9043121F0004038BD182091
:1004E00000F074F80246A06388B101240025C2E937
:1004F00004450C4B0C4C09480C499160C2E900437F
:100500000B2393810A4B0146C2E9043138BD094BE4
:1005100009484E2100F012F8000000202DF4515837
:100520002D7F954C34126DE60E33CDABECDE05001D
:100530002E7F954CF43C00080C3D000800B50B4C98
:1005400025681446EE681A4685B003460D464CB140
:1005500007490095CDE901143046064900F022F81C
:1005600000F066FD04490C46F3E700BF00000020E0
:10057000403D0008503D00084C3D000808B51346BA
:100580000022FFF7DBFF00BF0CB400B583B004AB63
:1005900053F8042B019300F01DF903B05DF804EB50
:1005A00002B070470EB410B583B005AB064C53F8DB
:1005B000042B01930146206800F00CF903B0BDE85C
:1005C000104003B0704700BF00000020024B0146FE
:1005D000186800F069B800BF00000020024B014617
:1005E000186800F003B800BF00000020002950D0B8
:1005F00038B551F8043C0C1F002BB8BFE418054671
:1006000001F02EFA274A13682BB1A3420CD92168B6
:10061000601883422CD0636028461460BDE83840DF
:1006200001F020BAA3420FD81A465B68002BF9D11B
:1006300011685018844217D02CD363605460284648
:10064000BDE8384001F00EBA11685018A04214D02D
:1006500020D8216860188342EFD118685B6808448D
:10066000C4E900035460EAE723680B441360E6E73B
:1006700018685B6808442060CDE720680144501882
:1006800083421160DBD1D3E900040144C2E90014C4
:10069000D5E770470C232B602846BDE8384001F0B1
:1006A000E1B900BF74070020F8B5CD1C25F00305A3
:1006B00008350C2D38BF0C25002D064615DBA94248
:1006C00013D8254F01F0CCF93A6892B1144603E0F3
:1006D000636822466BB11C4623685B1BF8D40B2B66
:1006E00028D923601C44256017E00C2333600020C8
:1006F000F8BD796851B32946304600F0A9FB431C88
:100700001ED0C41C24F00304A04205D0211A304698
:1007100000F09EFB013013D02560304601F0A2F9B5
:1007200004F10B00231D20F00700C21A1CBF1B1A86
:10073000A350F8BD636894420CBF3B605360ECE784
:100740000C233360304601F08DF9D0E7304600F0DD
:100750007FFB7860CFE700BF740700209368013B00
:10076000002B936005DAD2F818C0634507DB0A292D
:1007700005D01368581C106019700846704700F0C7
:1007800079BB00BF9BB1F8B5134406460F46541E13
:100790005D1E01E0AC4208D014F8011F3A46304615
:1007A000FFF7DCFF431CF5D1F8BD0020F8BD0020A9
:1007B000704700BF936810B514461BB91846002354
:1007C000636010BD00F040FE0023A360002363605F
:1007D00010BD00BF2DE9F04FA1B08A4615461C465A
:1007E000039018B18369002B00F09F80964B9A45C7
:1007F00000F0A180954B9A4500F0AF80944B9A454C
:1008000004BF039BD3F80CA0BAF80C30180740F1D2
:100810009A80DAF81030002B00F0958000230D93B9
:1008200043F22003ADF839302B788A4E0794012724
:10083000D946002B71D02C4604E014F8013F002B60
:1008400000F08F80252BF8D1B4EB050B40F08C80A5
:100850002378002B61D000234FF0FF32CDE909232C
:1008600008930B938DF863301E93013404E0089ACB
:1008700007FA03F31A4308922546052214F8011BD0
:10088000304601F01DF8831B0028F0D1089BD906E3
:1008900044BF20228DF8632029781A0744BF2B22F9
:1008A0008DF863202A2977D1079A1168043200292C
:1008B0000792C0F2A4800B91697801352E297DD072
:1008C000654C0322204600F0FBFF30B1089B001B63
:1008D0004022824013430893013515F8011B5F48FD
:1008E0008DF83810062200F0EBFF002800F08D8014
:1008F0005B4B002B75D007AA00925A4B03985246C7
:1009000008A9AFF300808146B9F1FF3F05D00D9BE8
:100910004B440D932B78002B8DD1BAF80C305B062D
:1009200018D40D9821B0BDE8F08F00F06DFD464B56
:100930009A457FF45FAF039BD3F804A0BAF80C305C
:1009400018073FF566AF0398514600F0F7FA002804
:100950003FF464AF4FF0FF30E4E7039BD3F808A007
:1009600052E7B4EB050BD8D005F1FF38CDE904947C
:100970004446A846039D01E0CB4539D9A1465246DD
:1009800014F8011F2846FFF7E9FE09F102090130BA
:10099000A9EB0809F0D1C0E7A1F13002092A8DD8EE
:1009A0000B9B15F8011F03EB830302EB4303A1F13B
:1009B0003002092AF5D92E290B9381D169782A2989
:1009C0002DD1079BA9781A6809920433002A05F1F2
:1009D00002000793B8BF4FF0FF330546B8BF099335
:1009E0006EE7079B073323F00703083307938EE76F
:1009F0000D99DDE90494594423780D9129E7494282
:100A000043F002030B91089356E707AA0092154B97
:100A10000398524608A900F0C7F8814674E7A1F18F
:100A200030020023092A099305F101053FF648AF7A
:100A300015F8011F03EB830302EB4303A1F130021E
:100A4000092AF5D909933BE7D43C0008B43C0008D7
:100A5000943C0008803D0008883D00088C3D00085B
:100A6000000000008507000810B4044C84461346BB
:100A7000206810BC0A466146FFF7ACBE00000020AB
:100A80002DE9F84F92461F460A698B68DDF82890D9
:100A90009A42B8BF1A46CAF8002091F843300C4673
:100AA000064613B10132CAF80020226891065FD5CC
:100AB000DAF800300233CAF80030226812F0060F6C
:100AC00011461DD1E1689942D8BF114618DD04F1E5
:100AD000190B4FF0000805E0E568DAF80030ED1A70
:100AE00045450CDD01235A4639463046C84701309A
:100AF00008F10108F0D14FF0FF30BDE8F88F216810
:100B000094F84330003B18BF01238A060AD5E11848
:100B10005A1C302081F84300224494F8451082F892
:100B20004310023304F1430239463046C8470130CE
:100B3000E1D02368DAF80010E26803F00603042B22
:100B40001DD0A3682269934222DD4FF000089B1A52
:100B500098441A34002501E0454519DA012322465C
:100B600039463046C847013005F10105F4D1C2E7E6
:100B700012F0060F0FD0003B18BF0123D2E7511A25
:100B8000A3682269934221EAE178E0DC0029E0DCF5
:100B90000020BDE8F88FE168DAF800309942D8BF4C
:100BA000114694DCACE700BF2DE9F047174684B04E
:100BB0000A7E0C9D0C460646984601F1430C002A1D
:100BC00033D0A2F15803D9B2202967D8202B65D899
:100BD000DFE813F0DE006400640064006400640079
:100BE00064006400640064006400A7006E00640098
:100BF0006400640064006E006400640064006400CB
:100C000021008000C10064006400B1006400800025
:100C100064006400E40023681A0640F1E1802B6858
:100C20006269191D29601B681A600023E14623616F
:100C3000CDF800803B4603AA21463046FFF720FF4F
:100C4000013020D023694A4639463046C04701303A
:100C500019D02368E068DDF80C909B0718D548454B
:100C600016DD04F1190A002504E0E068A0EB090391
:100C7000AB420DDD0123524639463046C0470130B4
:100C800005F10105F1D14FF0FF3004B0BDE8F08768
:100C90004845B8BF484604B0BDE8F08784F8422014
:100CA000012004F142090023206184F84330BFE7AA
:100CB00023681A0602D4580600F1A88029680A6839
:100CC000043129601146002AC0F2A7805E484FF027
:100CD0000A0E11E02368190640F18E802B68191D59
:100CE0002960196858486F2A14BF4FF00A0E4FF058
:100CF000080E002384F843306268A260002A4FDBAC
:100D0000236823F004032360002949D1002A40F01E
:100D10009380E146BEF1080F53D0ACEB0903236189
:100D200086E72B681A6804332B6004F1420984F8C3
:100D300042200120B7E72B686268191D2960D3F8AB
:100D400000900021484600F0BBFD00287AD0A0EBBF
:100D500009006060A7E7236843F02003236078223E
:100D60003A4884F845202A68111D29601D0635D4AB
:100D7000590633D51188DD0744BF43F020032360B3
:100D800019B9236823F0200323604FF0100EB0E759
:100D9000582384F845302C482368E4E72368DEE7CD
:100DA0007546E146B1FBF5F305FB131A0A46AA4264
:100DB00010F80A1009F8011D1946F3D2BEF1080F08
:100DC000ABD12368D907A8D5626823699A42A4DC0D
:100DD000302309F8013C09F1FF399EE71168CAE7A1
:100DE00013F0400F2B68626903F1040129601B684E
:100DF00014BF1A801A6018E713F0400F2B6803F134
:100E0000040129600CBF196819886BE72A68B2F9D8
:100E1000001004322A600A4655E76268A2602D205D
:100E2000002A84F8430002DB23F0040323600A2530
:100E300005484942AE46B4E7037884F8423004F1ED
:100E4000420967E760682EE7943D0008A83D000866
:100E500038B5074D0022044608462A6002F0C6FA5B
:100E6000431C00D038BD2B68002BFBD0236038BD5D
:100E70007C070020F8B50D461446064608B1836984
:100E800043B3254B9C422AD0244B9C4229D0244B6F
:100E90009C4208BFF468A389A269A2601A0722D500
:100EA000236903B322686169D31AEDB299422F46D0
:100EB00029DD0133A1680139A160511C2160157041
:100EC00062699A4216D0A389DB0701D50A2D11D099
:100ED0003846F8BD00F098FA0F4B9C42D4D17468A4
:100EE000D9E7B468D7E72146304600F027F838B98B
:100EF0002369D7E72146304600F024F90028E7D0DF
:100F00004FF0FF37E4E72146304600F01BF9002898
:100F1000F6D122680123CDE7D43C0008B43C000898
:100F2000943C000810B4044C03460A46206810BCE8
:100F30001946FFF79FBF00BF00000020384B70B577
:100F40001D6806460C460DB1AB69D3B1354B9C42CA
:100F50001DD0354B9C4248D0344B9C4208BFEC68B6
:100F6000B4F90C30190717D52269FAB113F0010151
:100F70002BD0616900204942A060A1615AB30020D2
:100F800070BD284600F040FA264B9C42E1D16C68C7
:100F9000B4F90C301907E7D4DA063CD55D0726D43E
:100FA000226943F00803A381002ADFD103F42071F2
:100FB000B1F5007FDAD02146304600F0F3FBB4F9FA
:100FC0000C30226913F00101D3D1980758BF616931
:100FD000A160002AD3D1190658BF1046D0D543F0DE
:100FE0004003A3814FF0FF3070BDAC68B8E7616B80
:100FF00051B104F14402914204D03046FFF7F6FAB1
:10100000B4F90C300022626322690021C4E9002196
:1010100023F02403C5E70922326043F04003E0E7F0
:1010200000000020D43C0008B43C0008943C0008B8
:1010300008B5062000F0D4FD012000F055FF00BFE8
:10104000F8B5B1F90C301E070C4607463CD44A6887
:10105000002A56DDE56A002D34D000223E683A6051
:1010600013F4805259D1216A01233846A847451C00
:1010700002465DD0B4F90C30E56A580705D56368BF
:10108000D21A636B0BB1236CD21A216A0023384643
:10109000A847411C43D13B68002B40D01D2B01D0F9
:1010A000162B32D123690022C4E90032616B3E6005
:1010B00041B104F14403994202D03846FFF796FA51
:1010C000002363630020F8BD0E69002EFAD09B0751
:1010D0000D6808BF4B690E6018BF0023AD1B8B6005
:1010E0000CE0D4F828C0216A2B4632463846E04747
:1010F000B0F1000CA5EB0C05664406DD002DF0DC1C
:10110000E0E70A6C002AA5DCDCE7B4F90C3043F018
:101110004003A3814FF0FF30F8BD626DADE70023BF
:10112000636023692360A389DA04BFD56065BDE7E6
:101130003B68002B9ED01D2B01D0162BE5D13E60C5
:10114000C0E700BF38B50B69BBB10C46054608B116
:101150008369B3B10D4B9C4211D00D4B9C4213D00F
:101160000C4B9C4208BFEC68B4F90C302BB1214603
:101170002846BDE83840FFF763BF002038BD6C68E3
:10118000F2E700F041F9E5E7AC68EDE7D43C000890
:10119000B43C0008943C000838B540B3184A0369D1
:1011A00015680446D3B10DB1AB69CBB1154B9C4268
:1011B0000FD0154B9C4221D0144B9C4208BFEC68C9
:1011C000B4F90C3053B121462846BDE83840FFF74A
:1011D00037BF6C68B4F90C30002BF4D1002038BD57
:1011E000284600F011F9074B9C42E2D1F1E7084B89
:1011F00008491868BDE8384000F0B0BAAC68DFE7CD
:1012000000000020D43C0008B43C0008943C0008D6
:10121000903C00084511000800207047014900F08B
:101220009DBA00BF451100080020704770B56823C3
:101230004D1E03FB05F50E4605F17401FFF734FA68
:10124000044640B100210C30C4E90016A06005F14D
:101250006802FFF7A9F8204670BD00BFF8B5254B1E
:101260001F68BB6906463BB34837D7E90134013BE9
:1012700004D51DE05A1C04F1680419D0B4F90C50CF
:10128000013B002DF6D11C4BE360C4E90155C4E9D4
:10129000045565662560A5610822294604F15C00B5
:1012A000FFF782F8C4E90D55C4E912552046F8BD90
:1012B0003D682DB12F46D8E7384600F01FF8D3E738
:1012C0004FF4D6713046FFF7EFF9044668B10423B6
:1012D000056043600C302946A06025464FF4D0726B
:1012E000FFF762F83C602F46BFE70C23386033609D
:1012F000DCE700BF903C00080100FFFF2DE9F84F3C
:10130000344B35491A68816290424FF00003C0E9BE
:101310001233036504BF012383610546FFF79EFF77
:1013200068602846FFF79AFFA8602846FFF796FFF7
:101330006F68E86000240423FB6008222146C7E9A7
:101340000044C7E90444BC607C66BC6107F15C00F2
:10135000FFF72AF8DFF884B0AE68DFF884A0DFF882
:101360008490DFF88480214BC7F828A0C7E9087B68
:10137000C7F82C90C7F830800822F360C6E9004413
:10138000C6E90444B4607466B461214606F15C00A9
:10139000FFF70AF8C6E9086BC6E90AA9C6F8308063
:1013A000EE68134BF360C6E90044C6E90444B46038
:1013B0007466B4612146082206F15C00FEF7F4FF72
:1013C0000123C6E9086BC6E90B98C6F828A0AB61F3
:1013D000BDE8F88F903C00081D120008491D000868
:1013E000711D0008B11D0008D51D0008090001008D
:1013F00012000200024B0349186800F0AFB900BFA9
:10140000903C000845110008836903B976E77047EE
:10141000704700BF704700BF704700BF704700BFF4
:10142000024B0349186800F079B900BF00000020A2
:1014300019120008024B0349186800F06FB900BF89
:1014400000000020291200089368002B7BD02DE9B2
:10145000F04F8046B1F90C001746020783B00C46E6
:1014600023D50B690BB310F002033D6829D04FF070
:10147000000ADFF8A4B256465E453346524628BFFE
:101480005B464046002E4BD0216AD4F828C0E04786
:1014900000284EDDBB681B1A8244361ABB60002B45
:1014A000EAD1002003B0BDE8F08F21464046FFF7A7
:1014B00045FD002842D1B4F90C003D6810F002034C
:1014C000D5D110F0010940D14E462EB38305D4F892
:1014D00008B07FD5B3455A4600F2B08010F4906F43
:1014E00040F0BD8020680192494600F039FAA368B7
:1014F000019AA3EB0B012368A1601344B246236059
:101500000026BB68A3EB0A03D144BB60002BC8D004
:10151000B4F90C00002ED9D1D5E900960835D4E7EE
:10152000D5E900A60835A7E721464046FFF70AFEA1
:1015300080B3B4F90C3043F04003A3814FF0FF3087
:1015400003B0BDE8F08F002070471E46BA469946AA
:1015500018461F4666B388B34A46D4E904C32068D8
:10156000A168B24228BF3246604504D901EB030BA3
:101570005A4500F3A680934264DC216AD4F828C05F
:101580003A464046E047B0F1000BD2DDB9EB0B091B
:10159000CAD00120DAF80830A3EB0B035F44A6EBB6
:1015A0000B06CAF80830002B3FF47BAF002ED2D1D7
:1015B0006E682B460835002EFAD01F6832460A2185
:1015C000384600F07DF9002800F09D800130A0EB46
:1015D0000709C1E720682369984217D86269B242B7
:1015E00014D86FF00043B34228BF3346216A93FBFF
:1015F000F2F3D4F828C002FB03F340464A46E04722
:10160000B0F1000A95DDA6EB0A067AE7B345DA46A3
:1016100028BFB2465246494600F0A2F9A3682268A4
:10162000A3EB0A035244A3602260002BEBD12146B6
:101630004046FFF787FD0028E5D07AE72068B346EB
:10164000324650E73946019200F08AF9019AA368C0
:101650009B1AA360236813442360934696E722688D
:101660002369A2EB030A626902EB420202EBD27227
:101670000AF1010131445210914292BF93468B46C8
:101680000A4641052CD511464046FFF70DF80028C3
:101690003CD0524621690190FEF7ECFDA289019BE6
:1016A00022F4906242F08002A28103EB0A002361DF
:1016B000ABEB0A03C4F814B0A3602060B346324613
:1016C00011E739465A4600F04BF923685B44236022
:1016D00021464046FFF736FD00283FF457AF28E784
:1016E0001946404600F0C0F903460028DDD12169C3
:1016F0004046FEF77BFFB4F90C300C2223F0800348
:10170000C8F8002017E7721C914626E70C22B4F9AE
:101710000C30C8F800200EE700FCFF7F2DE9F041F7
:10172000884600F148070026D7E90154013D0FD44F
:10173000A389012B05F1FF3506D9B4F90E30013329
:10174000204601D0C04706436B1C04F16804EFD16A
:101750003F68002FE8D13046BDE8F0812DE9F8431D
:101760000746884600F148064FF00009D6E90154C3
:10177000013D11D4A389012B05F1FF3508D9B4F936
:101780000E300133214603D03846C04749EA0009EC
:101790006B1C04F16804EDD13668002EE6D1484692
:1017A000BDE8F883F0B5B1F90C300C46990797B055
:1017B00007D504F147030122C4E90432236017B0BE
:1017C000F0BDB4F90E10002905462EDB6A4600F084
:1017D0002DFB002827DB019E06F470464FF480673E
:1017E000A6F50056B6FA86F6394628467609FEF77B
:1017F0005BFF38B3A3891B4AAA6243F08003C4E9A4
:101800000407A3812060002ED9D0B4F90E10284619
:1018100000F022FB0028D2D0A38923F0030343F079
:101820000103A381CBE7B4F90C3013F0800F0CBF98
:101830004FF480674027394628460026FEF734FFDC
:101840000028D7D1B4F90C309A05B8D423F003039B
:1018500004F1470243F002030121C4E90421A381FA
:101860002260ACE71D12000870B50C46B1F90E10ED
:10187000002996B015461E460FDB6A4600F0D6FAE0
:1018800000280ADB019B03F47043A3F50053B3FA6D
:1018900083F34FF480625B0908E0A28912F0800FA5
:1018A0004FF0000314BF40224FF4806200203360E9
:1018B0002A6016B070BD00BF0000000000000000EC
:1018C00001F0FF01102A2BDB10F0070F08D010F8F1
:1018D000013B013A8B422DD010F0070F42B3F6D1F5
:1018E000F0B441EA012141EA014122F007047FF00E
:1018F00000070023F0E80256083C85EA010586EA65
:10190000010685FA47F5A3FA87F586FA47F6A5FAA0
:1019100087F68EB9EED1F0BC01F0FF0102F00702AC
:1019200032B110F8013B013A83EA010313B1F8D157
:101930000020704701387047002D06BF3546033838
:10194000073815F0010F07D1013015F4807F02BF71
:10195000013015F4C03F0130F0BC0138704700BFC2
:1019600088420ED98B1883420BD900EB020C002A57
:101970006ED0624613F801CD02F801CD9942F9D13B
:1019800070470F2A0FD8034602F1FF3C002A5FD0B0
:101990000CF1010C013B8C4411F8012B03F8012FD1
:1019A0006145F9D1704740EA01039B0751D1A2F18B
:1019B000100370B501F1200C23F00F0501F1100E9A
:1019C00000F11004AC441B095EF8105C44F8105C94
:1019D0005EF80C5C44F80C5C5EF8085C44F8085C4B
:1019E0005EF8045C44F8045C0EF1100EE64504F168
:1019F0001004E9D1013312F00C0F01EB031102F0D6
:101A00000F0400EB031328D0043C24F003064FEA34
:101A1000940C1E441C1F8E465EF8045B44F8045F61
:101A2000B442F9D10CF1010402F0030203EB840388
:101A300001EB840102F1FF3C4AB10CF1010C013BC6
:101A40008C4411F8012B03F8012F6145F9D170BDC9
:101A5000704702F1FF3C03469AE72246EAE700BFDF
:101A6000704700BF704700BFF8B51446F1B1C2B16E
:101A700006460D4600F018FAA04202D32F4638461B
:101A8000F8BD21463046FEF70FFE074658B1224604
:101A90002946FEF7EFFB30462946FEF7A7FD3846FC
:101AA000F8BDFEF7A3FD00273846F8BDBDE8F840B5
:101AB0001146FEF7F9BD00BF38B5446C0CB10020EB
:101AC00038BD80210546FEF7EFFD0246686430B15F
:101AD000031F7C3243F8044F9342FBD1EFE74FF0F2
:101AE000FF3038BD30B51F2983B0054608D8436C98
:101AF0000C4653B153F8240043F8242003B030BD02
:101B0000162303604FF0FF30F8E780210192FEF7C3
:101B1000CBFD019A686403460028F3D0011F00F151
:101B20007C05002041F8040FA942FBD1E2E700BF89
:101B30001F2938B505461ED8426C0C466AB152F8CA
:101B4000213053B1012B06D0591C10D0002142F88E
:101B5000241020469847002038BD284600F0F2F8AF
:101B6000224601462846BDE8384000F0D5B8162385
:101B70000360012038BD162303604FF0FF3038BDED
:101B80001F292AD838B5436C0C460546A3B153F833
:101B9000242003EB84034AB1511C0BD0012A07D047
:101BA000002520461D609047284638BD012038BDDD
:101BB000032038BD022038BD8021FEF775FD0346A5
:101BC000686438B1021F00217C3042F8041F904243
:101BD000FBD1DCE74FF0FF3038BD4FF0FF307047EE
:101BE00038B5134B1F281D681DD86A6C044662B1B6
:101BF00052F820304BB1012B05D0591C0FD00021D9
:101C000042F820109847002038BD284600F09AF886
:101C1000224601462846BDE8384000F07DB816232C
:101C20002B60012038BD16232B604FF0FF3038BDEC
:101C300000000020114B1F2870B51E6808D8736C77
:101C400004460D464BB153F8240043F8245070BDB0
:101C5000162333604FF0FF3070BD80213046FEF711
:101C600023FD034670640028F4D0021F00217C305D
:101C700042F8041F9042FBD1E5E700BF00000020BE
:101C800038B50B4B1D686C6C0CB1002038BD802141
:101C90002846FEF709FD686438B1031F00F17C0295
:101CA00043F8044F9342FBD1EFE74FF0FF3038BDCC
:101CB0000000002038B5174B1F281D6826D80446A1
:101CC000686CA0B150F8243000EB84004BB15A1C72
:101CD0000BD0012B07D000250560204698472846E9
:101CE00038BD012038BD032038BD022038BD802119
:101CF0002846FEF7D9FC686440B1031F00F17C015F
:101D0000002243F8042F9942FBD1DBE74FF0FF306C
:101D100038BD00BF0000002070B50C46084D0346DA
:101D20000026204611461C462E6000F09FFC431CF6
:101D300000D070BD2B68002BFBD0236070BD00BFAE
:101D40007C07002000F090BC10B50C46B1F90E10D5
:101D500000F0B4F8002803DB636D0344636510BD35
:101D6000A38923F48053A38110BD00BF00207047D6
:101D70002DE9F0410C46B1F90C101F46CB05054684
:101D800016460BD421F48051A1813B46B4F90E10C4
:101D900032462846BDE8F04100F020B8B4F90E10F4
:101DA0000223002200F06AF8B4F90C10EAE700BF41
:101DB00010B50C46B1F90E1000F060F8B4F90C3013
:101DC000421C0EBF23F4805343F480536065A3810B
:101DD00010BD00BFB1F90E1000F016B838B50C46B2
:101DE000084D8446114620461A4600232B6064465F
:101DF00000F03FFC431C00D038BD2B68002BFBD00B
:101E0000236038BD7C07002038B5074D002204460A
:101E100008462A6000F026FC431C00D038BD2B6821
:101E2000002BFBD0236038BD7C07002070B50C462A
:101E3000084D03460026204611461C462E6000F041
:101E400012FC431C00D070BD2B68002BFBD023601C
:101E500070BD00BF7C07002038B5074D0022044646
:101E600008462A6000F001FC431C00D038BD2B68F6
:101E7000002BFBD0236038BD7C07002038B50C4612
:101E8000084D8446114620461A4600232B606446BE
:101E900000F0EDFB431C00D038BD2B68002BFBD0BD
:101EA000236038BD7C07002051F8040C0028A0F105
:101EB0000400BCBF0B58C018704700BF38B50C46B3
:101EC000084D8446114620461A4600232B6064467E
:101ED00000F0CEFB431C00D038BD2B68002BFBD09C
:101EE000236038BD7C070020FEE700BF30B5102B13
:101EF000ADB00546144616D1ADB1A1B19AB1684650
:101F000000F010F922462B4604F1100152F8040BA0
:101F100043F8040B8A42F9D16846294600F038F9A3
:101F200000202DB030BD4FF0FF30FAE700F0F0B8E0
:101F30006B2970B50D4614461E460FD1244A002366
:101F40009C4206DC224A21466B2000F0B1FA0020B8
:101F500070BDF15C02F8011B0133F1E770290CD16F
:101F60001C4A00239C4203DC1A4A21467020ECE7FD
:101F7000F15C02F8011B0133F4E7732917D1A2B118
:101F800000231846F25CD90001338A40042B40EA52
:101F9000020001D09C42F5DCFEF758FA042C2146E1
:101FA000324628BF04217320CFE71046F4E76C299E
:101FB000CDD1074CF522002104F5F570FEF7F4F9B8
:101FC000337884F8DF3204F2DF2201212846BCE7AF
:101FD0008000002075010020632937B50D4611D11E
:101FE0000E4C00F0E9FB94F8DF3204F1F5022146D3
:101FF00004F5F570FFF77AFF00F0E5FB04F53870A3
:10200000FFF794FF8223284601AA01218DF80430AE
:1020100000F04EFA002003B030BD00BF8000002069
:10202000722908B5084608D1064B93F8DF1203F56C
:10203000F57200F03DFA002008BD6D29FBD1024A7F
:102040000A21F6E7800000206003002008B500F0B8
:1020500011FB00F04FFB00F08BFB0120FEF7F6F9BF
:1020600000F014FA084AF521812000F0F5F9074A3A
:10207000F521822000F0F0F9054AF521832000F0D7
:10208000EBF900F073FAFCE7311F0008D91F0008D4
:102090002120000870B59DF814409DF81050614053
:1020A0009DF8184062409DF81C4063409DF8204018
:1020B00000F11006654004784C40047044785440A8
:1020C000447084785C408470C4786C40C470043080
:1020D000B042F0D170BDF0B500010C1D1431231FCA
:1020E00016181D7816F8017B7D4003F8015BA342AA
:1020F000F7D11C1D8C4200F10400F0D1F0BDC309E2
:1021000003EB430303EBC30383EA4000C0B2704711
:10211000034B1A6802605A681B894260038170474A
:102120006A030020F0B501F1100203460C781C7020
:102130004C785C708C789C70CC78DC700431914267
:1021400003F10403F2D1114E04229707037B457B70
:10215000847BC17B08D1775D355D745CF15C06EBF7
:10216000920393F800317B4007787B4003744378F7
:102170005D40837845745C40C37884740132594073
:102180002C2AC17400F10400DFD1F0BD84340008B2
:102190002DE9F04FBFB000250C46B022014612A831
:1021A000CDE90F55ADF84450FEF764F80FAEFEF7D9
:1021B0007FF90135EDB2062D06F8010BF7D19DF838
:1021C0003C3007939DF83D3008939DF83E300993CD
:1021D0009DF83F300A93DDE9093283EA0207814B1B
:1021E000079A0A9D9DF841609A1892F80B1192F88F
:1021F0000BB24F400899591891F80B0291F80B91C6
:102200000999474007988DF842705918684089EA43
:10221000000991F80B0291F80B1189EA0009DDE938
:10222000070580EA050A8AEA010A0A998DF84390AF
:10223000591891F80B0291F80B218AEA000A2846F6
:10224000099D8DF844A068408BEA000B8BEA020BD5
:102250008DF845B0644D9DF84080002282EA080167
:1022600013F8010B294401327040B2F5807F887267
:10227000F4D10025CDE90366CDE9016600952B4632
:102280002A4629463AA8FFF705FF12A800EB0510D9
:10229000CDE90388CDE90188CDF800B053464A4620
:1022A00039460135FFF7F6FE0A2DEED10FAB03CB11
:1022B000DFF834811B88C8F800000025C8F8041036
:1022C000A8F80830394653464A462046CDE903551A
:1022D000CDE90155CDF800B0FFF7DCFE12AA21468A
:1022E0002846FFF7F8FE231D0B9304F11003012786
:1022F0000C9325462246002312F823104144897A84
:1023000002F823100133042BF6D10B9B01329342C8
:10231000F1D1627963786270627A6271627B627213
:10232000A27A6373A378A270A27BA372A379A2712D
:10233000E27BA373E378E270E27AE2730A2FE27938
:10234000E272E37145D00A9B0093CDE90366CDE9C3
:102350000166DDE9082307992046FFF79BFE95F803
:1023600000B06978AA7895F803A08BEA010082EAA8
:102370000A0380EA03090D93FFF7C1FE8BEA000010
:1023800089EA0000287081EA0200FFF7B8FE0D9B81
:10239000414089EA010169701846FFF7B0FE4240EA
:1023A00089EA0202AA708BEA0A00FFF7A8FE8AEA0D
:1023B000000A0C9B89EA0A0985F803900435AB42B0
:1023C000CDD1384612AA21460137FFF784FEFFB26D
:1023D0008FE712AA21463846FFF77DFE3FB0BDE8E1
:1023E000F08F00BF843400086A03002010B5024655
:1023F000014400208A4200D110BD12F8013B08249C
:10240000584010F0800F4FEA400318BF83F04D038F
:10241000013CD8B2F5D1EDE730B5002204460123E6
:102420008B4201D3002030BD14F8015F15B99D1A0D
:1024300085541A460133DBB2F2E730B50478002543
:10244000024605702046884200D204B930BD145CB3
:1024500015540319D8B2F6E738B50B4D2B681F2B6E
:1024600004DD612000F0D0F9012038BDF82901D940
:102470006220F7E70C2404FB035401332071C4E904
:1024800002122B600020F0E77405002008B5064A10
:1024900000217620FFF7E0FFBDE80840034A002155
:1024A0007720FFF7D9BF00BF1325000831250008AA
:1024B00070B50C46C0B011464AB3224600258DF8CF
:1024C00005000DF107008DF806408DF80450FDF76A
:1024D000D1FEA11CC9B20DF10500FFF787FF04F57D
:1024E00080736B44261D03F8F90C06F580736B446A
:1024F000611DC9B201A803F8FC5CFFF78DFF01ACB8
:1025000014F8010B013500F07FF9AE42F8DA40B063
:1025100070BD07B503230DF10702012172208DF86C
:102520000730FFF7C5FF002003B05DF804FB000093
:1025300030B50D48017889B000220C24D3B28B420B
:1025400002F1010206DB6A467220FFF7B1FF0020AC
:1025500009B030BD03F1200504FB03036D441B7972
:1025600005F8203CEAE700BF740500202DE9F0479C
:10257000C0B0002401AD8DF80340A94600F02AF94F
:1025800005F8010B58B905208DF803000DF1030281
:1025900001216520FFF78CFF40B0BDE8F0870134D2
:1025A000042CEBD121464846FFF747FF2C4E9DF8FF
:1025B00005103268074600230C205FFA83F8904527
:1025C00002DB07D10120DFE700FB086501332D792D
:1025D0008D42F2D19DF807300533BB4202DA042068
:1025E000D2E72C4600F0F6F809F804000028CAD01B
:1025F0009DF80730651C0433AB42F2DA00F0EAF8CC
:1026000005F580736B4403F8FC0C0028E7D1C7F193
:10261000010353FA85F1C9B25FFA85FA09EB0700A5
:10262000FFF70BFFAAF10201C9B20DF10500FFF798
:10263000DDFE04F580730DEB030414F8FC3C8342CB
:102640000CD10C2303FB08669DF80720F4689DF865
:1026500006109DF8050002ABA04795E7022093E71E
:102660007405002070477047704770477047704787
:102670007047704770B596B0002403264FF4A0232E
:102680000CA80125CDE90C631094149400F0D4F843
:102690000F23214602A8CDE90235CDE90444069472
:1026A00000F01CFB114B5A6942F400225A615B692D
:1026B000CDE9094603F400230D4C0193019B07A9C2
:1026C0004FF4C0432046CDE9073500F0A7FB2A466A
:1026D00020464FF4005100F061FC2A464FF480413F
:1026E000204600F05BFC16B070BD00BF0010024039
:1026F0000008004810B54FF4C06288B00223CDE94D
:10270000032301210323CDE90513164C0723079367
:10271000636943F400336361636903F40033019335
:1027200003A94FF09040019B00F078FB0E48DFF8C2
:102730003CC04FF46133C0E900C30023C0E9023359
:10274000036183610C234361A36943F48043A36164
:10275000A36903F480430293029B00F05BFD08B081
:1027600010BD00BF00100240F806002000380140F4
:10277000104B30B55A6942F400325A615B6987B038
:1027800003F400330093009B4FF480540123CDE900
:1027900001430025032301A94FF09040CDE90353E5
:1027A00000F03CFB2A4621464FF0904000F0F6FB3B
:1027B00007B030BD0010024001224FF480514FF0AD
:1027C000904000F0EBBB00224FF480514FF090405E
:1027D00000F0E4BB37B50A4D0A4C41F288330122C0
:1027E0000DF10701284600F095FD18B99DF8070086
:1027F00003B030BD236A43F008032362EDE700BF56
:10280000F80600200038014007B541F288338DF802
:10281000070001220DF10701024800F025FD03B079
:102820005DF804FBF8060020024B1868421C1A6091
:10283000704700BF6807002003682DE9F743D907F8
:10284000044611D423689A0700F18B8023681E0781
:1028500000F1F38023685D0700F13681E269002A08
:1028600040F0B88100201FE0B3494B6803F00C032F
:10287000042B07D04B6803F00C03082B17D14B68CF
:10288000DB0314D54FF4003393FAA3F2096893FAEB
:10289000A3F30122B3FA83F302FA03F30B42D1D07C
:1028A0006368002BCED1012003B0BDE8F083D4E9EA
:1028B0000132B3F5803F20D10B6843F480330B60C5
:1028C000CB6A23F00F031343CB62FFF7ADFF4FF446
:1028D00000360546012796FAA6F30A6896FAA6F38B
:1028E000B3FA83F307FA03F31342ABD1FFF79CFF6C
:1028F000401B6428EFD90320D6E71BBB0B6823F4E9
:1029000080330B600B6823F480230B60CB6A23F0C9
:102910000F031343CB62FFF787FF4FF400360546E2
:10292000012796FAA6F30A6896FAA6F3B3FA83F398
:1029300007FA03F3134285D0FFF776FF401B6428A4
:10294000EFD9D8E7B3F5A02F0B6803D143F4802368
:102950000B60B1E723F480330B600B6823F4802312
:10296000ADE775494B6813F00C0F07D04B6803F0C7
:102970000C03082B1FD14B68DF031CD4022393FAEE
:10298000A3F2086893FAA3F30122B3FA83F302FADD
:1029900003F3034202D02369934284D10868F822EA
:1029A00092FAA2F26369B2FA82F2934020F0F8023E
:1029B00013430B604AE722690125F2B195FAA5F3AA
:1029C000B3FA83F303F1845303F584139B000227C6
:1029D0001D60FFF729FF064697FAA7F30A6897FAE2
:1029E000A7F3B3FA83F305FA03F31342D6D1FFF743
:1029F0001BFF801B0228EFD97DE795FAA5F3B3FAF8
:102A000083F303F1845303F584139B0002271A60B8
:102A1000FFF70AFF064697FAA7F30A6897FAA7F3A3
:102A2000B3FA83F305FA03F313423FF40FAFFFF752
:102A3000FBFE801B0228EED95DE7A2693E4D3F48B0
:102A4000012102B391FAA1F3B3FA83F303449B008B
:102A500002261960FFF7E8FE074696FAA6F396FAF3
:102A6000A6F396FAA6F36A6A96FAA6F3B3FA83F384
:102A700001FA03F313427FF4EDAEFFF7D5FEC01B5E
:102A80000228EAD937E791FAA1F3B3FA83F30344B2
:102A90009B0002261A60FFF7C7FE074696FAA6F3C8
:102AA00096FAA6F396FAA6F36A6A96FAA6F3B3FA2A
:102AB00083F301FA03F313423FF4CCAEFFF7B4FE05
:102AC000C01B0228EAD916E71B49CB69D80031D4CC
:102AD000CB6943F08053CB61CB6903F08053019302
:102AE000019B0125164E3368DA052BD5E368012BCF
:102AF00038D10B6A43F001030B62FFF795FE022603
:102B000007464FF0010841F2883996FAA6F396FA83
:102B1000A6F30A6A96FAA6F3B3FA83F308FA03F364
:102B2000134251D0002D3FF499AECB6923F080536E
:102B3000CB6193E60025D5E700100240208190107C
:102B400000700040336843F480733360FFF76CFE1D
:102B500007463368DB05C9D4FFF766FEC01B64284F
:102B6000F7D9C8E613BB0B6A23F001030B620B6AAB
:102B700023F004030B62FFF757FE022607464FF0CF
:102B8000010841F2883996FAA6F396FAA6F30A6A82
:102B900096FAA6F3B3FA83F308FA03F31342C1D00B
:102BA000FFF742FEC01B4845EDD9A4E6052B0B6A92
:102BB00003D143F004030B629BE723F001030B6294
:102BC0000B6A23F0040397E7FFF72EFEC01B48456E
:102BD0009BD990E63F494B6803F00C03082B3FF468
:102BE00062AE022A4FF0807350D193FAA3F3B3FA86
:102BF00083F303F1845303F584139B0000221A60CE
:102C0000FFF712FEDFF8D08006464FF0007701256F
:102C100097FAA7F30A6897FAA7F3B3FA83F305FACA
:102C200003F313422CD1D4E908034A68034322F486
:102C3000741213434B604FF0807393FAA3F3B3FA0B
:102C400083F303F1845303F584139B00224F1D602B
:102C5000FFF7EAFD4FF000750446012695FAA5F34B
:102C60000A6895FAA5F3B3FA83F306FA03F313425D
:102C70007FF4F8ADFFF7D8FD001BB842EED93AE675
:102C8000FFF7D2FD831B4345C2D934E693FAA3F381
:102C9000B3FA83F303F1845303F584139B000022FA
:102CA0001A60FFF7C1FD0C4F04464FF00075012676
:102CB00095FAA5F30A6895FAA5F3B3FA83F306FA31
:102CC00003F313423FF4CEADFFF7AEFD001BB84255
:102CD000EED910E600100240400D03004D4AF8B551
:102CE000136803F007038B42044611D3226895074B
:102CF0001AD4D00720D4474A136803F007038B4245
:102D00006CD82268510774D413077AD400200AE0E3
:102D1000136823F007030B431360136803F00703E2
:102D20008B42E3D00120F8BD3B48A568436823F0FF
:102D3000F0032B434360DCE76268374D012A25D15D
:102D40004FF4003393FAA3F0286893FAA3F3B3FA8D
:102D500083F302FA03F30342E4D06B6823F0030326
:102D600013436B60FFF760FD6368012B064641F279
:102D700088371CD16B6803F00C03042BBBD0FFF722
:102D800053FD801BB842F5D90320CCE7022A0CBFC3
:102D90004FF00073022393FAA3F02E6893FAA3F383
:102DA0000120B3FA83F300FA03F33342D4E7022B92
:102DB0000FD16B6803F00C03082B9CD0FFF734FD98
:102DC000801BB842F5D9DFE7FFF72EFD801BB84224
:102DD000DAD86B6813F00C0FF6D18CE7136823F088
:102DE00007030B431360136803F007038B4299D169
:102DF00087E70949E0684B6823F4E06303434B60CD
:102E000082E7054A2169536823F4605343EAC1030A
:102E100053607BE700200240001002402DE9F74F8D
:102E2000DFF86C815B4C00234FF00F090A6832FA1F
:102E300003F502D103B0BDE8F08F012505FA03FACE
:102E40001AEA020200F099804D6825F0100EBEF1DA
:102E5000020F11D1DF0800EB870703F0070C3E6A71
:102E60004FEA8C0C09FA0CFB26EA0B0B0E6906FAEA
:102E70000CF646EA0B063E62D0F800B04FEA430C6F
:102E8000032606FA0CF72BEA070BFE4305F00307AF
:102E900007FA0CF70EF1FF3E47EA0B07BEF1010FF0
:102EA000076011D8876806EA070ECF6807FA0CF7A3
:102EB00047EA0E078760476827EA0A0EC5F300173E
:102EC0009F4047EA0E074760C76837408E6806FA9A
:102ED0000CF63E43C660EE004FD5D8F8186046F0B9
:102EE0000106C8F81860D8F8186023F0030707F146
:102EF000804706F0010607F58037019603F0030CC2
:102F0000019EBE684FEA8C0C09FA0CFEB0F1904F9E
:102F100026EA0E0E33D0204EB04232D006F580663F
:102F2000B04230D006F58066B0422ED006F58066FD
:102F3000B04214BF0526042606FA0CF646EA0E0631
:102F4000BE602668D74315F4803F0CBF3E40164351
:102F50002660666815F4003F0CBF3E40164366606D
:102F6000A66815F4801F0CBF3E401643A660E668B5
:102F7000AD0254BF3E401643E660013356E70026DB
:102F8000DAE70126D8E70226D6E70326D4E700BF12
:102F90000010024000040140000400480AB18161B1
:102FA000704781627047000002688368C16930B56C
:102FB000056914682B43456924F416442B4324F017
:102FC0000C040B43234313605368C468056A23F45D
:102FD0004053234353609468836924F430642B4343
:102FE00023439360544B9A4212D103F558431B6B11
:102FF00003F00303022B6BD0032B1ED04068B1F506
:10300000004F4FEA500340F0898003F561031EE052
:103010004A4B9A421ED103F5E6331B6B03F440334F
:10302000B3F5003F54D005D8002B5AD0B3F5803FFC
:10303000E4D038E0B3F5403F35D14068B1F5004FFA
:103040004FEA50036FD103F1F47303F59043B3FBE0
:10305000F0F350E03A4B9A420FD103F5E4331B6B87
:1030600003F44023B3F5002F32D003D8CBB3B3F52C
:10307000802FDDE7B3F5402FDEE7324B9A420FD1C8
:1030800003F5E2331B6B03F44013B3F5001F1FD0AD
:1030900003D833B3B3F5801FCAE7B3F5401FCBE7BE
:1030A000294B9A4205D0B1F5004F4FF001002BD0CB
:1030B00030BD264B1B6B03F44003B3F5000F07D064
:1030C00003D873B1B3F5800FB2E7B3F5400FB3E7A0
:1030D0004068B1F5004F4FEA500329D103F5803322
:1030E000B5E7B1F5004F41684FEA51030ED103F542
:1030F0006103B3FBF1F39BB2002023F00F01C3F394
:1031000042030B43D360D3E70023F6E703F5E10363
:10311000B3FBF1F39BB2D3600020C9E703F5E103F1
:10312000B3FBF0F3F6E703F5740303F51053F7E789
:1031300003F50043F4E700BF0038014000440040BD
:1031400000480040004C0040005000400010024089
:103150002DE9F041DDF81880044616461F46256823
:10316000EB6931EA03030CBF01230023B34201D012
:10317000002016E0B8F1FF3FF2D0B8F1000F12D1F5
:103180002B6823F4D0732B60AB6823F00103AB6092
:10319000202384F8693084F86A30002384F868308A
:1031A0000320BDE8F081FFF73FFBC01B4045D6D9A7
:1031B000E6E773B504460021C166FFF735FB2668D4
:1031C00033681A07054616D433685B070AD56FF0D3
:1031D0007E43009300222B464FF480012046FFF7E8
:1031E000B7FFA0B92023002084F8693084F8680074
:1031F00084F86A300CE06FF07E4300930A46034681
:103200004FF400112046FFF7A3FF0028DCD0032075
:1032100002B070BD38B5044620B390F8693003F0B1
:10322000FF020BB980F868202568242384F86930F0
:103230002B6823F001032B602046FFF7B5FE012821
:1032400010D06B6823F490436B60AB6823F02A03C3
:10325000AB602B6843F001032B602046BDE838408B
:10326000FFF7A7BF012038BDF7B51E4690F86930BB
:10327000202B0D46044611464AD1002D46D0002A87
:1032800044D090F86830012B42D0012380F8683098
:103290000023C366212380F86930FFF7C5FAA4F83C
:1032A00050100746A4F85210B4F8522092B262B9F6
:1032B00000963B4640212046FFF74AFF98B920235D
:1032C00084F8693084F868000EE0B4F85220013ABE
:1032D00092B2A4F852203B4600960022802120465C
:1032E000FFF736FF10B1032003B0F0BDA3682268DA
:1032F000B3F5805F07D123692BB935F8023BC3F3DF
:1033000008031385D0E715F8013BFAE70120EBE746
:103310000220E9E72DE9F3411E4690F86A30202BA0
:103320000D46044611465CD1002D58D0002A56D0D7
:1033300090F86830012B54D0012380F8683003687E
:103340004FF0FF321A620023C366222380F86A30EE
:10335000FFF76AFAA368A4F85810B3F5805F8046B7
:10336000A4F85A1015D123698BB940F2FF13A4F8C1
:103370005C30B4F85C70B4F85A0080B280B9202395
:1033800084F86A3084F8680002B0BDE8F081FF2359
:10339000EDE7002BEDD12369002BF8D07F23E6E782
:1033A000B4F85A20013A92B2A4F85A204346009643
:1033B000002220212046FFF7CBFEA0B9A268236897
:1033C000B2F5805F06D1226922B99B8C3B4025F87B
:1033D000023BD0E79B8C3B4005F8013BCBE701204B
:1033E000D2E70220D0E70320CEE700000A4A1168A6
:1033F00008B5034609B909491160106869460344D4
:103400008B4206D9FCF708FF0C2303604FF0FF3016
:1034100008BD1360FCE700BF700700208007002094
:10342000002103E00B4B5B58435004310A480B4B1F
:1034300042189A42F6D30A4A02E00023136004328B
:10344000084B9A42F9D3AFF30080FCF7EBFEFEF78E
:10345000FDFDFEE7C43D00080000002064000020E0
:103460006400002080070020FEE70000F8B500BFE0
:10347000F8BC08BC9E467047F8B500BFF8BC08BC55
:043480009E467047AD
:10348400637C777BF26B6FC53001672BFED7AB761D
:10349400CA82C97DFA5947F0ADD4A2AF9CA472C0C8
:1034A400B7FD9326363FF7CC34A5E5F171D8311535
:1034B40004C723C31896059A071280E2EB27B27556
:1034C40009832C1A1B6E5AA0523BD6B329E32F84CE
:1034D40053D100ED20FCB15B6ACBBE394A4C58CFC6
:1034E400D0EFAAFB434D338545F9027F503C9FA89A
:1034F40051A3408F929D38F5BCB6DA2110FFF3D268
:10350400CD0C13EC5F974417C4A77E3D645D19731B
:1035140060814FDC222A908846EEB814DE5E0BDB15
:10352400E0323A0A4906245CC2D3AC629195E4794C
:10353400E7C8376D8DD54EA96C56F4EA657AAE08A6
:10354400BA78252E1CA6B4C6E8DD741F4BBD8B8A41
:10355400703EB5664803F60E613557B986C11D9EA7
:10356400E1F8981169D98E949B1E87E9CE5528DF1E
:103574008CA1890DBFE6426841992D0FB054BB164A
:103584008D01020408102040801B36000204060846
:103594000A0C0E10121416181A1C1E202224262897
:1035A4002A2C2E30323436383A3C3E404244464887
:1035B4004A4C4E50525456585A5C5E606264666877
:1035C4006A6C6E70727476787A7C7E808284868867
:1035D4008A8C8E90929496989A9C9EA0A2A4A6A857
:1035E400AAACAEB0B2B4B6B8BABCBEC0C2C4C6C847
:1035F400CACCCED0D2D4D6D8DADCDEE0E2E4E6E837
:10360400EAECEEF0F2F4F6F8FAFCFE1B191F1D13B7
:103614001117150B090F0D030107053B393F3D3306
:103624003137352B292F2D232127255B595F5D53F6
:103634005157554B494F4D434147457B797F7D73E6
:103644007177756B696F6D636167659B999F9D93D6
:103654009197958B898F8D83818785BBB9BFBDB3C6
:10366400B1B7B5ABA9AFADA3A1A7A5DBD9DFDDD3B6
:10367400D1D7D5CBC9CFCDC3C1C7C5FBF9FFFDF3A6
:10368400F1F7F5EBE9EFEDE3E1E7E5000306050CFF
:103694000F0A09181B1E1D14171211303336353C3E
:1036A4003F3A39282B2E2D24272221606366656C2E
:1036B4006F6A69787B7E7D74777271505356555C5E
:1036C4005F5A59484B4E4D44474241C0C3C6C5CCCE
:1036D400CFCAC9D8DBDEDDD4D7D2D1F0F3F6F5FCFE
:1036E400FFFAF9E8EBEEEDE4E7E2E1A0A3A6A5AC6E
:1036F400AFAAA9B8BBBEBDB4B7B2B1909396959C1E
:103704009F9A99888B8E8D848782819B989D9E97A2
:10371400949192838085868F8C898AABA8ADAEA75D
:10372400A4A1A2B3B0B5B6BFBCB9BAFBF8FDFEF70D
:10373400F4F1F2E3E0E5E6EFECE9EACBC8CDCEC77D
:10374400C4C1C2D3D0D5D6DFDCD9DA5B585D5E57AD
:10375400545152434045464F4C494A6B686D6E671D
:10376400646162737075767F7C797A3B383D3E374D
:10377400343132232025262F2C292A0B080D0E073D
:10378400040102131015161F1C191A000E1C1238FE
:1037940036242A707E6C624846545AE0EEFCF2D815
:1037A400D6C4CA909E8C82A8A6B4BADBD5C7C9E396
:1037B400EDFFF1ABA5B7B9939D8F813B3527290365
:1037C4000D1F114B455759737D6F61ADA3B1BF9563
:1037D4009B8987DDD3C1CFE5EBF9F74D43515F7585
:1037E4007B69673D33212F050B191776786A644E80
:1037F40040525C06081A143E30222C96988A84AEF5
:10380400A0B2BCE6E8FAF4DED0C2CC414F5D5379F5
:1038140077656B313F2D230907151BA1AFBDB39904
:1038240097858BD1DFCDC3E9E7F5FB9A948688A20F
:10383400ACBEB0EAE4F6F8D2DCCEC07A7466684274
:103844004C5E500A041618323C2E20ECE2F0FED4F2
:10385400DAC8C69C92808EA4AAB8B60C02101E3494
:103864003A28267C72606E444A585637392B250F05
:1038740001131D47495B557F71636DD7D9CBC5EFE4
:10388400E1F3FDA7A9BBB59F91838D000B161D2CF9
:10389400273A3158534E45747F6269B0BBA6AD9C3C
:1038A400978A81E8E3FEF5C4CFD2D97B706D665761
:1038B4005C414A2328353E0F041912CBC0DDD6E7FC
:1038C400ECF1FA9398858EBFB4A9A2F6FDE0EBDA89
:1038D400D1CCC7AEA5B8B38289949F464D505B6ADC
:1038E400617C771E1508033239242F8D869B90A1A5
:1038F400AAB7BCD5DEC3C8F9F2EFE43D362B2011DC
:103904001A070C656E737849425F54F7FCE1EADBF1
:10391400D0CDC6AFA4B9B28388959E474C515A6B9B
:10392400607D761F1409023338252E8C879A91A066
:10393400ABB6BDD4DFC2C9F8F3EEE53C372A21109B
:103944001B060D646F727948435E55010A171C2DDE
:10395400263B3059524F44757E6368B1BAA7AC9D7B
:10396400968B80E9E2FFF4C5CED3D87A716C6756A2
:103974005D404B2229343F0E051813CAC1DCD7E63B
:10398400EDF0FB9299848FBEB5A8A3000D1A1734ED
:10399400392E236865727F5C51464BD0DDCAC7E47B
:1039A400E9FEF3B8B5A2AF8C81969BBBB6A1AC8FF0
:1039B400829598D3DEC9C4E7EAFDF06B66717C5F3B
:1039C400524548030E1914373A2D206D60777A5901
:1039D40054434E05081F12313C2B26BDB0A7AA89BB
:1039E40084939ED5D8CFC2E1ECFBF6D6DBCCC1E202
:1039F400EFF8F5BEB3A4A98A87909D060B1C11327B
:103A04003F28256E6374795A57404DDAD7C0CDEEFE
:103A1400E3F4F9B2BFA8A5868B9C910A07101D3E5A
:103A2400332429626F7875565B4C41616C7B765503
:103A3400584F420904131E3D30272AB1BCABA6855A
:103A4400889F92D9D4C3CEEDE0F7FAB7BAADA0837C
:103A54008E9994DFD2C5C8EBE6F1FC676A7D70539A
:103A64005E49440F0215183B36212C0C01161B38F5
:103A740035222F64697E73505D4A47DCD1C6CBE89A
:103A8400E5F2FFB4B9AEA3808D9A970009121B2406
:103A94002D363F48415A536C657E779099828BB49A
:103AA400BDA6AFD8D1CAC3FCF5EEE73B3229201F2F
:103AB400160D04737A6168575E454CABA2B9B08F9A
:103AC400869D94E3EAF1F8C7CED5DC767F646D5227
:103AD4005B40493E372C251A130801E6EFF4FDC27A
:103AE400CBD0D9AEA7BCB58A8398914D445F5669B3
:103AF400607B72050C171E2128333ADDD4CFC6F93A
:103B0400F0EBE2959C878EB1B8A3AAECE5FEF7C86A
:103B1400C1DAD3A4ADB6BF8089929B7C756E675819
:103B2400514A43343D262F1019020BD7DEC5CCF37E
:103B3400FAE1E89F968D84BBB2A9A0474E555C6319
:103B44006A71780F061D142B2239309A938881BE2E
:103B5400B7ACA5D2DBC0C9F6FFE4ED0A0318112EF9
:103B6400273C35424B5059666F747DA1A8B3BA8582
:103B74008C979EE9E0FBF2CDC4DFD63138232A15B9
:103B84001C070E79706B625D544F4652096AD5303A
:103B940036A538BF40A39E81F3D7FB7CE339829BD3
:103BA4002FFF87348E4344C4DEE9CB547B9432A682
:103BB400C2233DEE4C950B42FAC34E082EA1662853
:103BC400D924B2765BA2496D8BD12572F8F664864E
:103BD400689816D4A45CCC5D65B6926C704850FDB0
:103BE400EDB9DA5E154657A78D9D8490D8AB008C4D
:103BF400BCD30AF7E45805B8B34506D02C1E8FCAC7
:103C04003F0F02C1AFBD0301138A6B3A9111414FBB
:103C140067DCEA97F2CFCEF0B4E67396AC7422E791
:103C2400AD3585E2F937E81C75DF6E47F11A711D71
:103C340029C5896FB7620EAA18BE1BFC563E4BC637
:103C4400D279209ADBC0FE78CD5AF41FDDA83388E0
:103C540007C731B11210592780EC5F60517FA91951
:103C6400B54A0D2DE57A9F93C99CEFA0E03B4DAE7C
:103C74002AF5B0C8EBBB3C83539961172B047EBA79
:103C840077D626E169146355210C7D0004000020D9
:103C94000000000000000000000000000000000020
:103CA4000000000000000000000000000000000010
:103CB4000000000000000000000000000000000000
:103CC40000000000000000000000000000000000F0
:103CD40000000000000000000000000000000000E0
:103CE40000000000000000000000000000000000D0
:103CF4005245454E54206D616C6C6F63207375633F
:103D040063656564656400002E2E2F2E2E2F2E2EE3
:103D14002F2E2E2F2E2E2F2E2E2F2E2E2F2E2E2FB9
:103D24006E65776C69622F6C6962632F7374646C5F
:103D340069622F72616E642E630000002C20667528
:103D44006E6374696F6E3A200000000061737365DE
:103D54007274696F6E2022257322206661696C6516
:103D6400643A2066696C6520222573222C206C69D4
:103D74006E65202564257325730A0000232D302BDE
:103D840020000000686C4C006566674546470000EB
:103D9400303132333435363738394142434445467D
:103DA400000000003031323334353637383961623F
:083DB400636465660000000075
:043DBC00F901000801
:043DC000D101000825
:103DC4000400002000000000D43C0008B43C0008BB
:103DD400943C000800000000000000000000000007
:103DE40000000000000000000000000000000000CF
:103DF40000000000000000000000000000000000BF
:103E040000000000000000000000000000000000AE
:103E1400000000000000000000000000000000009E
:043E2400000000009A
:04000005080034219A
:00000001FF
