:020000040800F2
:1000000000A0002011170008591700085917000810
:100010005917000859170008591700080000000078
:100020000000000000000000000000005917000858
:100030005917000800000000591700085917000858
:1000400000000000000000000000000000000000B0
:1000500000000000000000000000000000000000A0
:100060000000000000000000000000000000000090
:100070000000000000000000000000000000000080
:100080000000000000000000000000000000000070
:100090000000000000000000000000000000000060
:1000A0000000000000000000000000000000000050
:1000B0000000000000000000000000000000000040
:1000C0000000000000000000000000000000000030
:1000D0000000000000000000000000000000000020
:1000E0000000000000000000000000000000000010
:1000F0000000000000000000000000000000000000
:1001000000000000000000000000000000000000EF
:1001100000000000000000000000000000000000DF
:1001200000000000000000000000000000000000CF
:1001300000000000000000000000000000000000BF
:1001400000000000000000000000000000000000AF
:10015000000000000000000000000000000000009F
:10016000000000000000000000000000000000008F
:10017000000000000000000000000000000000007F
:08018000000000000000000077
:100188000348044B834202D0034B03B1184770471E
:100198000000002000000020000000000548064B79
:1001A8001B1AD90F01EBA301491002D0034B03B16D
:1001B80018477047000000200000002000000000E1
:1001C80010B5064C237843B9FFF7DAFF044B13B197
:1001D8000448AFF300800123237010BD0000002005
:1001E800000000005C17000808B5044B1BB1044967
:1001F8000448AFF30080BDE80840CFE700000000E6
:10020800040000205C17000870B50F4B0F4DAB427F
:10021800A3EB050607D0B610002455F8043B0134BB
:100228009847A642F9D801F095FA094D094B5E1B8B
:10023800AB424FEAA60606D0002455F8043B013429
:100248009847A642F9D870BD80190008801900089F
:100258008019000884190008844641EA000313F055
:1002680003036DD1403A41D351F8043B40F8043BB5
:1002780051F8043B40F8043B51F8043B40F8043B78
:1002880051F8043B40F8043B51F8043B40F8043B68
:1002980051F8043B40F8043B51F8043B40F8043B58
:1002A80051F8043B40F8043B51F8043B40F8043B48
:1002B80051F8043B40F8043B51F8043B40F8043B38
:1002C80051F8043B40F8043B51F8043B40F8043B28
:1002D80051F8043B40F8043B51F8043B40F8043B18
:1002E80051F8043B40F8043B403ABDD2303211D3B8
:1002F80051F8043B40F8043B51F8043B40F8043BF8
:1003080051F8043B40F8043B51F8043B40F8043BE7
:10031800103AEDD20C3205D351F8043B40F8043BB7
:10032800043AF9D2043208D0D2071CBF11F8013BB5
:1003380000F8013B01D30B8803806046704700BF7B
:10034800082A13D38B078DD010F003038AD0C3F18A
:100358000403D21ADB071CBF11F8013B00F8013B6C
:1003680080D331F8023B20F8023B7BE7043AD9D32B
:10037800013A11F8013B00F8013BF9D20B78037000
:100388004B7843708B78837060467047830730B52D
:1003980047D0541E002A3ED0CAB2034601E0013CB1
:1003A80039D303F8012B9D07F9D1032C2CD9CDB2F1
:1003B80005EB05250F2C05EB054535D9A4F11002F1
:1003C80022F00F0C03F1100EE6444FEA121C1A46F5
:1003D800156055609560D56010327245F8D10CF102
:1003E800010214F00C0F03EB021204F00F0C13D0EF
:1003F800ACF1040323F003030433134442F8045B11
:100408009A42FBD10CF003042CB1C9B21C4403F886
:10041800011B9C42FBD130BD64461346002CF4D12D
:10042800F9E703461446C0E71A46A446E0E700BFCA
:1004380030B5102BADB00546144616D1ADB1A1B1FB
:100448009AB1684600F0BAF822462B4604F110012A
:1004580052F8040B43F8040B8A42F9D1684629463E
:1004680000F0E2F800202DB030BD4FF0FF30FAE781
:1004780070B50C466B2C11461D460ED1164A00234A
:10048800994205DC144A6B2000F0A8F9002070BDE1
:10049800E85C02F8010B0133F2E7702C0BD10F4A2C
:1004A8000023994202DC0D4A7020EDE7E85C02F86F
:1004B800010B0133F5E76C2CE8D1074EF52200213A
:1004C80006F5F570FFF762FF2B7886F8DF3206F243
:1004D800DF2201212046D7E71C000020110100205F
:1004E800632913B50C460CD100F0F4FA0A4991F8C7
:1004F800DF3201F1F50201F5F570FFF799FF00F021
:10050800F0FA8223204601AA01218DF8043000F078
:1005180065F9002002B010BD1C000020722908B542
:10052800084606D1044B93F8DF1203F5F57200F084
:1005380055F9002008BD00BF1C00002008B500F0D8
:1005480027FA00F065FA00F0A1FA00F035F9094A37
:10055800F521812000F016F9074AF521822000F0E4
:1005680011F9064AF521832000F00CF900F094F9FE
:10057800FCE700BF79040008E90400082505000825
:10058800F0B500010C1D1431231F16181D7816F83C
:10059800017B7D4003F8015BA342F7D11C1D8C420F
:1005A80000F10400F0D1F0BDC30903EB430303EBF2
:1005B800C30383EA4000C0B270470000F0B501F100
:1005C800100203460C781C704C785C708C789C7018
:1005D800CC78DC700431914203F10403F2D1114E5E
:1005E80004229707037B457B847BC17B08D1775D19
:1005F800355D745CF15C06EB920393F800317B4047
:1006080007787B40037443785D40837845745C4089
:10061800C3788474013259402C2AC17400F1040053
:10062800DFD1F0BD741700082DE9F74F0C460246DC
:100638000020FFF7A5FF231D0125009304F11009F1
:1006480021462046002310F82360324FBE5D00F893
:1006580023600133042BF6D1009B01308342F1D192
:10066800607963786070607A6071607B6072A07A8C
:100678006373A378A070A07BA372A379A071E07BB9
:10068800A373E378E070E07AE0730A2DE079E07212
:10069800E37137D091F800B04F788E7891F803A0C5
:1006A8008BEA070086EA0A0380EA03080193FFF74A
:1006B8007BFF8BEA000088EA0000087087EA0600E2
:1006C800FFF772FF019B474088EA07074F701846FB
:1006D800FFF76AFF464088EA06068E708BEA0A0032
:1006E800FFF762FF8AEA000A88EA0A0881F80380AD
:1006F80004318945CED1284621460135FFF740FF10
:10070800EDB29DE72146284603B0BDE8F04FFFF75C
:1007180037BF00BF7417000810B502460144002017
:100728008A4200D110BD12F8013B0824584010F04D
:10073800800F4FEA400318BF83F04D03013CD8B245
:10074800F5D1EDE730B50022044601238B4201D3F1
:10075800002030BD14F8015F15B99D1A85541A465A
:100768000133DBB2F2E730B50478002502460570A4
:100778002046884200D204B930BD145C15540319D0
:10078800D8B2F6E738B50B4D2B681F2B04DD612076
:1007980000F0C8F9012038BDF82901D96220F7E72F
:1007A8000C2404FB035401332071C4E902122B60AA
:1007B8000020F0E7FC02002008B5064A0021762058
:1007C800FFF7E0FFBDE80840034A00217720FFF764
:1007D800D9BF00BF470800086508000870B50C4677
:1007E800C0B011464AB3224600258DF805000DF128
:1007F80007008DF806408DF80450FFF72DFDA11C69
:10080800C9B20DF10500FFF787FF04F580736B444B
:10081800261D03F8F90C06F580736B44611DC9B2F7
:1008280001A803F8FC5CFFF78DFF01AC14F8010B7D
:10083800013500F077F9AE42F8DA40B070BD07B57F
:1008480003230DF10702012172208DF80730FFF70D
:10085800C5FF002003B05DF804FB000030B50D486B
:10086800017889B000220C24D3B28B4202F1010234
:1008780006DB6A467220FFF7B1FF002009B030BDE1
:1008880003F1200504FB03036D441B7905F8203CA4
:10089800EAE700BFFC0200202DE9F047C0B00024C1
:1008A80001AD8DF80340A94600F022F905F8010BC7
:1008B80058B905208DF803000DF1030201216520C8
:1008C800FFF78CFF40B0BDE8F0870134042CEBD172
:1008D80021464846FFF747FF2C4E9DF80510326821
:1008E800074600230C205FFA83F8904502DB07D106
:1008F8000120DFE700FB086501332D798D42F2D135
:100908009DF807300533BB4202DA0420D2E72C46B3
:1009180000F0EEF809F804000028CAD09DF8073066
:10092800651C0433AB42F2DA00F0E2F805F5807397
:100938006B4403F8FC0C0028E7D1C7F1010353FA14
:1009480085F1C9B25FFA85FA09EB0700FFF70BFFDB
:10095800AAF10201C9B20DF10500FFF7DDFE04F5A9
:1009680080730DEB030414F8FC3C83420CD10C2378
:1009780003FB08669DF80720F4689DF806109DF8AB
:10098800050002ABA04795E7022093E7FC02002090
:1009980070B596B0002403264FF4A0230CA80125B7
:1009A800CDE90C631094149400F0D4F80F23214679
:1009B80002A8CDE90235CDE90444069400F01CFBF9
:1009C800114B5A6942F400225A615B69CDE9094624
:1009D80003F400230D4C0193019B07A94FF4C04376
:1009E8002046CDE9073500F0A7FB2A4620464FF4FC
:1009F800005100F061FC2A464FF48041204600F087
:100A08005BFC16B070BD00BF001002400008004833
:100A180010B54FF4C06288B00223CDE90323012149
:100A28000323CDE90513164C07230793636943F4A1
:100A380000336361636903F40033019303A94FF042
:100A48009040019B00F078FB0E48DFF83CC04FF463
:100A58006133C0E900C30023C0E902330361836145
:100A68000C234361A36943F48043A361A36903F49E
:100A780080430293029B00F05BFD08B010BD00BFED
:100A8800001002408004002000380140104B30B5AF
:100A98005A6942F400325A615B6987B003F4003343
:100AA8000093009B4FF480540123CDE901430025B6
:100AB800032301A94FF09040CDE9035300F03CFB1C
:100AC8002A4621464FF0904000F0F6FB07B030BDB3
:100AD8000010024001224FF480514FF0904000F086
:100AE800EBBB00224FF480514FF0904000F0E4BB84
:100AF80037B50A4D0A4C41F2883301220DF107013E
:100B0800284600F095FD18B99DF8070003B030BDE0
:100B1800236A43F008032362EDE700BF8004002046
:100B28000038014007B541F288338DF807000122EB
:100B38000DF10701024800F025FD03B05DF804FB44
:100B480080040020024B1868421C1A60704700BFDE
:100B5800F004002003682DE9F743D907044611D4AF
:100B680023689A0700F18B8023681E0700F1F38041
:100B780023685D0700F13681E269002A40F0B881F8
:100B880000201FE0B3494B6803F00C03042B07D087
:100B98004B6803F00C03082B17D14B68DB0314D503
:100BA8004FF4003393FAA3F2096893FAA3F30122EE
:100BB800B3FA83F302FA03F30B42D1D06368002B34
:100BC800CED1012003B0BDE8F083D4E90132B3F5FA
:100BD800803F20D10B6843F480330B60CB6A23F04D
:100BE8000F031343CB62FFF7ADFF4FF40036054602
:100BF800012796FAA6F30A6896FAA6F3B3FA83F3DE
:100C080007FA03F31342ABD1FFF79CFF401B64289C
:100C1800EFD90320D6E71BBB0B6823F480330B60A6
:100C28000B6823F480230B60CB6A23F00F03134374
:100C3800CB62FFF787FF4FF400360546012796FA87
:100C4800A6F30A6896FAA6F3B3FA83F307FA03F34E
:100C5800134285D0FFF776FF401B6428EFD9D8E709
:100C6800B3F5A02F0B6803D143F480230B60B1E7E1
:100C780023F480330B600B6823F48023ADE77549B8
:100C88004B6813F00C0F07D04B6803F00C03082BCC
:100C98001FD14B68DF031CD4022393FAA3F2086820
:100CA80093FAA3F30122B3FA83F302FA03F303429C
:100CB80002D02369934284D10868F82292FAA2F2FA
:100CC8006369B2FA82F2934020F0F80213430B6092
:100CD8004AE722690125F2B195FAA5F3B3FA83F33D
:100CE80003F1845303F584139B0002271D60FFF76B
:100CF80029FF064697FAA7F30A6897FAA7F3B3FA03
:100D080083F305FA03F31342D6D1FFF71BFF801BC9
:100D18000228EFD97DE795FAA5F3B3FA83F303F137
:100D2800845303F584139B0002271A60FFF70AFF18
:100D3800064697FAA7F30A6897FAA7F3B3FA83F374
:100D480005FA03F313423FF40FAFFFF7FBFE801BD6
:100D58000228EED95DE7A2693E4D3F48012102B362
:100D680091FAA1F3B3FA83F303449B0002261960B6
:100D7800FFF7E8FE074696FAA6F396FAA6F396FA60
:100D8800A6F36A6A96FAA6F3B3FA83F301FA03F3B1
:100D980013427FF4EDAEFFF7D5FEC01B0228EAD957
:100DA80037E791FAA1F3B3FA83F303449B000226D1
:100DB8001A60FFF7C7FE074696FAA6F396FAA6F357
:100DC80096FAA6F36A6A96FAA6F3B3FA83F301FAD7
:100DD80003F313423FF4CCAEFFF7B4FEC01B022866
:100DE800EAD916E71B49CB69D80031D4CB6943F05F
:100DF8008053CB61CB6903F080530193019B01259C
:100E0800164E3368DA052BD5E368012B38D10B6A07
:100E180043F001030B62FFF795FE022607464FF0E9
:100E2800010841F2883996FAA6F396FAA6F30A6AF7
:100E380096FAA6F3B3FA83F308FA03F3134251D0F0
:100E4800002D3FF499AECB6923F08053CB6193E634
:100E58000025D5E700100240208190100070004066
:100E6800336843F480733360FFF76CFE07463368DA
:100E7800DB05C9D4FFF766FEC01B6428F7D9C8E6AE
:100E880013BB0B6A23F001030B620B6A23F0040304
:100E98000B62FFF757FE022607464FF0010841F2A2
:100EA800883996FAA6F396FAA6F30A6A96FAA6F38A
:100EB800B3FA83F308FA03F31342C1D0FFF742FEF3
:100EC800C01B4845EDD9A4E6052B0B6A03D143F0B6
:100ED80004030B629BE723F001030B620B6A23F008
:100EE800040397E7FFF72EFEC01B48459BD990E601
:100EF8003F494B6803F00C03082B3FF462AE022A0B
:100F08004FF0807350D193FAA3F3B3FA83F303F14C
:100F1800845303F584139B0000221A60FFF712FE26
:100F2800DFF8D08006464FF00077012597FAA7F33F
:100F38000A6897FAA7F3B3FA83F305FA03F313429F
:100F48002CD1D4E908034A68034322F474121343EA
:100F58004B604FF0807393FAA3F3B3FA83F303F172
:100F6800845303F584139B00224F1D60FFF7EAFDAD
:100F78004FF000750446012695FAA5F30A6895FA1C
:100F8800A5F3B3FA83F306FA03F313427FF4F8AD3B
:100F9800FFF7D8FD001BB842EED93AE6FFF7D2FDBD
:100FA800831B4345C2D934E693FAA3F3B3FA83F318
:100FB80003F1845303F584139B0000221A60FFF7A2
:100FC800C1FD0C4F04464FF00075012695FAA5F3B4
:100FD8000A6895FAA5F3B3FA83F306FA03F3134202
:100FE8003FF4CEADFFF7AEFD001BB842EED910E6D8
:100FF80000100240400D03004D4AF8B5136803F095
:1010080007038B42044611D3226895071AD4D007E8
:1010180020D4474A136803F007038B426CD8226830
:10102800510774D413077AD400200AE0136823F018
:1010380007030B431360136803F007038B42E3D0E5
:101048000120F8BD3B48A568436823F0F0032B4313
:101058004360DCE76268374D012A25D14FF400333D
:1010680093FAA3F0286893FAA3F3B3FA83F302FA86
:1010780003F30342E4D06B6823F0030313436B606C
:10108800FFF760FD6368012B064641F288371CD1E3
:101098006B6803F00C03042BBBD0FFF753FD801BD8
:1010A800B842F5D90320CCE7022A0CBF4FF00073F1
:1010B800022393FAA3F02E6893FAA3F30120B3FA5C
:1010C80083F300FA03F33342D4E7022B0FD16B68A2
:1010D80003F00C03082B9CD0FFF734FD801BB842AB
:1010E800F5D9DFE7FFF72EFD801BB842DAD86B6829
:1010F80013F00C0FF6D18CE7136823F007030B43AA
:101108001360136803F007038B4299D187E70949F5
:10111800E0684B6823F4E06303434B6082E7054AC9
:101128002169536823F4605343EAC10353607BE7A2
:1011380000200240001002402DE9F74FDFF86C81D3
:101148005B4C00234FF00F090A6832FA03F502D10D
:1011580003B0BDE8F08F012505FA03FA1AEA020286
:1011680000F099804D6825F0100EBEF1020F11D1E4
:10117800DF0800EB870703F0070C3E6A4FEA8C0C88
:1011880009FA0CFB26EA0B0B0E6906FA0CF646EA7E
:101198000B063E62D0F800B04FEA430C032606FA6D
:1011A8000CF72BEA070BFE4305F0030707FA0CF7C9
:1011B8000EF1FF3E47EA0B07BEF1010F076011D899
:1011C800876806EA070ECF6807FA0CF747EA0E07A2
:1011D8008760476827EA0A0EC5F300179F4047EA69
:1011E8000E074760C76837408E6806FA0CF63E431C
:1011F800C660EE004FD5D8F8186046F00106C8F86A
:101208001860D8F8186023F0030707F1804706F044
:10121800010607F58037019603F0030C019EBE68AE
:101228004FEA8C0C09FA0CFEB0F1904F26EA0E0E2C
:1012380033D0204EB04232D006F58066B04230D06E
:1012480006F58066B0422ED006F58066B04214BF1F
:101258000526042606FA0CF646EA0E06BE6026683F
:10126800D74315F4803F0CBF3E401643266066689E
:1012780015F4003F0CBF3E4016436660A66815F49F
:10128800801F0CBF3E401643A660E668AD0254BFFF
:101298003E401643E660013356E70026DAE70126AA
:1012A800D8E70226D6E70326D4E700BF001002409D
:1012B80000040140000400480AB18161704781625E
:1012C8007047000002688368C16930B50569146811
:1012D8002B43456924F416442B4324F00C040B4398
:1012E800234313605368C468056A23F440532343B7
:1012F80053609468836924F430642B4323439360D8
:10130800544B9A4212D103F558431B6B03F0030365
:10131800022B6BD0032B1ED04068B1F5004F4FEA6B
:10132800500340F0898003F561031EE04A4B9A425E
:101338001ED103F5E6331B6B03F44033B3F5003FCE
:1013480054D005D8002B5AD0B3F5803FE4D038E00C
:10135800B3F5403F35D14068B1F5004F4FEA50032F
:101368006FD103F1F47303F59043B3FBF0F350E04E
:101378003A4B9A420FD103F5E4331B6B03F4402335
:10138800B3F5002F32D003D8CBB3B3F5802FDDE708
:10139800B3F5402FDEE7324B9A420FD103F5E23323
:1013A8001B6B03F44013B3F5001F1FD003D833B3EE
:1013B800B3F5801FCAE7B3F5401FCBE7294B9A4224
:1013C80005D0B1F5004F4FF001002BD030BD264BB2
:1013D8001B6B03F44003B3F5000F07D003D873B1B8
:1013E800B3F5800FB2E7B3F5400FB3E74068B1F546
:1013F800004F4FEA500329D103F58033B5E7B1F523
:10140800004F41684FEA51030ED103F56103B3FB66
:10141800F1F39BB2002023F00F01C3F342030B4307
:10142800D360D3E70023F6E703F5E103B3FBF1F359
:101438009BB2D3600020C9E703F5E103B3FBF0F3E7
:10144800F6E703F5740303F51053F7E703F50043D4
:10145800F4E700BF00380140004400400048004065
:10146800004C004000500040001002402DE9F041BF
:10147800DDF81880044616461F462568EB6931EAF0
:1014880003030CBF01230023B34201D0002016E060
:10149800B8F1FF3FF2D0B8F1000F12D12B6823F456
:1014A800D0732B60AB6823F00103AB60202384F872
:1014B800693084F86A30002384F868300320BDE876
:1014C800F081FFF73FFBC01B4045D6D9E6E773B56F
:1014D80004460021C166FFF735FB266833681A0702
:1014E800054616D433685B070AD56FF07E43009330
:1014F80000222B464FF480012046FFF7B7FFA0B922
:101508002023002084F8693084F8680084F86A3061
:101518000CE06FF07E4300930A4603464FF4001137
:101528002046FFF7A3FF0028DCD0032002B070BDDF
:1015380038B5044620B390F8693003F0FF020BB9C0
:1015480080F868202568242384F869302B6823F004
:1015580001032B602046FFF7B5FE012810D06B6809
:1015680023F490436B60AB6823F02A03AB602B68CD
:1015780043F001032B602046BDE83840FFF7A7BFC2
:10158800012038BDF7B51E4690F86930202B0D466E
:10159800044611464AD1002D46D0002A44D090F87E
:1015A8006830012B42D0012380F868300023C366DD
:1015B800212380F86930FFF7C5FAA4F850100746D0
:1015C800A4F85210B4F8522092B262B900963B4681
:1015D80040212046FFF74AFF98B9202384F8693054
:1015E80084F868000EE0B4F85220013A92B2A4F8E8
:1015F80052203B460096002280212046FFF736FF06
:1016080010B1032003B0F0BDA3682268B3F5805F72
:1016180007D123692BB935F8023BC3F308031385B7
:10162800D0E715F8013BFAE70120EBE70220E9E7EC
:101638002DE9F3411E4690F86A30202B0D460446EA
:1016480011465CD1002D58D0002A56D090F8683049
:10165800012B54D0012380F8683003684FF0FF3223
:101668001A620023C366222380F86A30FFF76AFAF9
:10167800A368A4F85810B3F5805F8046A4F85A1000
:1016880015D123698BB940F2FF13A4F85C30B4F884
:101698005C70B4F85A0080B280B9202384F86A30AC
:1016A80084F8680002B0BDE8F081FF23EDE7002B65
:1016B800EDD12369002BF8D07F23E6E7B4F85A2050
:1016C800013A92B2A4F85A204346009600222021FB
:1016D8002046FFF7CBFEA0B9A2682368B2F5805F69
:1016E80006D1226922B99B8C3B4025F8023BD0E702
:1016F8009B8C3B4005F8013BCBE70120D2E7022059
:10170800D0E70320CEE70000002103E00B4B5B5835
:10171800435004310A480B4B42189A42F6D30A4AFE
:1017280002E0002313600432084B9A42F9D3AFF366
:101738000080FEF769FDFEF701FFFEE78819000843
:10174800000000200000002000000020F804002015
:10175800FEE70000F8B500BFF8BC08BC9E4670471D
:0C176800F8B500BFF8BC08BC9E467047F6
:10177400637C777BF26B6FC53001672BFED7AB764A
:10178400CA82C97DFA5947F0ADD4A2AF9CA472C0F5
:10179400B7FD9326363FF7CC34A5E5F171D8311562
:1017A40004C723C31896059A071280E2EB27B27583
:1017B40009832C1A1B6E5AA0523BD6B329E32F84FB
:1017C40053D100ED20FCB15B6ACBBE394A4C58CFF3
:1017D400D0EFAAFB434D338545F9027F503C9FA8C7
:1017E40051A3408F929D38F5BCB6DA2110FFF3D295
:1017F400CD0C13EC5F974417C4A77E3D645D197349
:1018040060814FDC222A908846EEB814DE5E0BDB42
:10181400E0323A0A4906245CC2D3AC629195E47979
:10182400E7C8376D8DD54EA96C56F4EA657AAE08D3
:10183400BA78252E1CA6B4C6E8DD741F4BBD8B8A6E
:10184400703EB5664803F60E613557B986C11D9ED4
:10185400E1F8981169D98E949B1E87E9CE5528DF4B
:101864008CA1890DBFE6426841992D0FB054BB1677
:101874008D01020408102040801B3652096AD530BD
:1018840036A538BF40A39E81F3D7FB7CE339829B06
:101894002FFF87348E4344C4DEE9CB547B9432A6B5
:1018A400C2233DEE4C950B42FAC34E082EA1662886
:1018B400D924B2765BA2496D8BD12572F8F6648681
:1018C400689816D4A45CCC5D65B6926C704850FDE3
:1018D400EDB9DA5E154657A78D9D8490D8AB008C80
:1018E400BCD30AF7E45805B8B34506D02C1E8FCAFA
:1018F4003F0F02C1AFBD0301138A6B3A9111414FEF
:1019040067DCEA97F2CFCEF0B4E67396AC7422E7C4
:10191400AD3585E2F937E81C75DF6E47F11A711DA4
:1019240029C5896FB7620EAA18BE1BFC563E4BC66A
:10193400D279209ADBC0FE78CD5AF41FDDA8338813
:1019440007C731B11210592780EC5F60517FA91984
:10195400B54A0D2DE57A9F93C99CEFA0E03B4DAEAF
:101964002AF5B0C8EBBB3C83539961172B047EBAAC
:0C19740077D626E169146355210C7D0034
:04198000F101000869
:04198400C90100088D
:0400000508001711C7
:00000001FF
